S01200004B6967436F6E74726F6C2E7372656316
S11300000C9446000C94560E0C949F0E0C946500B0
S11300100C9465000C94320D0C947B0D0C94C40D5F
S11300200C940D0E0C9465000C9465000C94650002
S11300300C9465000C9465000C9465000C94130DED
S11300400C9465000C94290C0C94AA000C94F200F6
S11300500C94E0000C9465000C9465000C9465000D
S11300600C9465000C9465000C94730C0C9465005E
S11300700C9465000C9465000C9465000C94650068
S11300800C9465000C9465000C94650011241FBE4B
S1130090CFEFD0E1DEBFCDBF11E0A0E0B1E0EAE4F4
S11300A0F1E200E00BBF02C007900D92A433B10748
S11300B0D9F721E0A4E3B1E001C01D92A53FB20746
S11300C0E1F70E94E80E0C94A3100C940000EF9248
S11300D0FF920F931F93CF93DF93CDB7DEB727978C
S11300E00FB6F894DEBF0FBECDBF9E838D836F83A2
S11300F02F818D819E818C011227012E0294802DE7
S11301008F708127912F9025990F907E8927902DAC
S11301109127907F9695012E000C991F16951695A0
S113012016951F7119271027082FF92EE82E1A8308
S11301300983EB82FC8289819A8127960FB6F89411
S1130140DEBF0FBECDBFDF91CF911F910F91FF9006
S1130150EF9008951F920F9200905F000F92112468
S113016000905B000F922F933F934F935F936F9395
S11301707F938F939F93AF93BF93EF93FF93CF930B
S1130180DF93CDB7DEB78CE290E0FC0180810E9462
S11301905203DF91CF91FF91EF91BF91AF919F9166
S11301A08F917F916F915F914F913F912F910F901C
S11301B000925B000F9000925F000F901F901895C3
S11301C01F920F9200905F000F921124CF93DF9340
S11301D0CDB7DEB7DF91CF910F9000925F000F9003
S11301E01F9018951F920F9200905F000F92112498
S11301F000905B000F920F931F932F933F934F93A5
S11302005F936F937F938F939F93AF93BF93EF937A
S1130210FF93CF93DF93CDB7DEB780916601882338
S113022039F00CE210E00E943403F80180830BC023
S11302301092A7018AE290E02AE230E0F9012081DD
S11302402F7DFC012083DF91CF91FF91EF91BF912E
S1130250AF919F918F917F916F915F914F913F915A
S11302602F911F910F910F9000925B000F900092BD
S11302705F000F901F901895CF93DF9300D0CDB7F8
S1130280DEB79A83898382E290E022E230E0F901CA
S113029020812360FC01208383E290E023E230E0AC
S11302A0F90120812C7FFC01208380E990E02981E1
S11302B03A81232F3327FC01208389E290E02981AE
S11302C0FC0120838AE290E028EDFC01208385E98B
S11302D090E02EE0FC0120830F900F90DF91CF91EE
S11302E00895CF93DF93CDB7DEB72A970FB6F8946E
S11302F0DEBF0FBECDBF8F83798768874A871A8296
S11303001982F8948A85882F90E006960E94600FDF
S11303109E838D838AEA0E94120385E50E9412035C
S11303208D819E8121E0FC0120838D819E81019637
S11303302F81FC0120838D819E810296FC01108215
S11303408D819E8103962A85FC0120838A85482F0E
S113035050E08D819E81049628853985B9010E94DB
S11303609A101B8213C08B81882F90E02D813E81CF
S1130370820F931FFC01208189819A81622F0E9440
S113038067009A8389838B818F5F8B838B81282F6E
S113039030E08A85882F90E00496281739071CF3EB
S11303A08A85882F90E004962D813E81820F931FC9
S11303B02981FC0120838A85882F90E005962D8170
S11303C03E81820F931F29813A81232F3327FC0119
S11303D020831C821CC08C81882F90E02D813E815B
S11303E0820F931FFC0180810E9412038C81882F4D
S11303F090E02D813E81820F931FFC0180818A3A17
S113040019F480E00E9412038C818F5F8C838C81AD
S1130410282F30E08A85882F90E006962817390720
S1130420D4F28D819E810E94FB0F8AE290E02AE241
S113043030E0F90120812062FC01208381E0809377
S1130440A70178942A960FB6F894DEBF0FBECDBFED
S1130450DF91CF910895CF93DF9300D000D000D0E7
S1130460CDB7DEB79C838B837E836D831A8219821A
S113047010C08B819C81FC0120818B819C81019621
S11304809C838B8389819A81622F0E9467009A835F
S1130490898321E08D819E81009709F420E08D817C
S11304A09E8101979E838D83222319F789819A81E6
S11304B026960FB6F894DEBF0FBECDBFDF91CF9165
S11304C00895CF93DF93CDB7DEB72A970FB6F8948C
S11304D0DEBF0FBECDBF8E836F83598748872A87BF
S11304E01B821A82F8948A85882F90E007960E94CE
S11304F0600F9D838C838FEF0E9412038AEA0E940F
S1130500120385E50E9412038C819D8121E0FC0188
S113051020838C819D8101962E81FC0120838C8116
S11305209D810296FC0110828C819D8103962A850F
S11305302F5FFC0120838C819D8104962F81FC0117
S113054020838C819D8105962885398545E050E07E
S1130550B9010E949A108A85882F90E005969C0123
S11305608C819D81B9010E942B029B838A838A8599
S1130570882F90E005962C813D81820F931F2A815C
S1130580FC0120838A85882F90E006962C813D818A
S1130590820F931F2A813B81232F3327FC01208361
S11305A019821CC08981882F90E02C813D81820FA3
S11305B0931FFC0180810E9412038981882F90E09F
S11305C02C813D81820F931FFC0180818A3A19F4AA
S11305D080E00E94120389818F5F89838981282F9B
S11305E030E08A85882F90E0079628173907D4F2DF
S11305F08C819D810E94FB0F8AE290E02AE230E028
S1130600F90120812062FC01208381E08093A7010D
S113061078942A960FB6F894DEBF0FBECDBFDF9153
S1130620CF910895CF93DF931F92CDB7DEB789831F
S113063080913901803410F01092390120913901F0
S1130640822F90E089599E4F3981FC013083822F9B
S11306508F5F80933901809166018F5F809366017B
S11306600F90DF91CF910895CF93DF93CDB7DEB78D
S113067080913801803410F0109238018091660125
S113068081508093660120913801822F90E089592E
S11306909E4FFC018081922F9F5F90933801DF91E0
S11306A0CF910895CF93DF931F92CDB7DEB789839F
S11306B08981882F90E08535910559F08A3A910512
S11306C019F00097A1F141C08091A8018160809345
S11306D0A8018091A8018170882301F18981853561
S11306E0E9F48091A8018E7F8093A8018091A801EC
S11306F082608093A8018091A80184608093A801FE
S113070080913401809335011092360110923701A3
S11307108091A8018F708093A8016BC08091A8017B
S11307208470882321F489818A3A09F45DC0809118
S1130730A8018170882349F08981882331F480914C
S1130740A8018E7F8093A80154C08091A801807F66
S1130750882309F04BC080913601813091F489815E
S1130760813079F089818F3F61F08091A8018F7089
S113077080618093A8018091A8018B7F8093A80158
S113078038C08091A8018470882391F1698184E341
S113079091E00E94D50480913601833021F489814F
S11307A08A5F80933701809136018F5F8093360191
S11307B0809136018823E9F09091360180913701C8
S11307C09817B9F48091A8018B7F8093A801809138
S11307D0A80188608093A801909136018091350129
S11307E0692F0E94FD0305C0000003C0000001C082
S11307F000000F90DF91CF9108951F93CF93DF9363
S1130800CDB7DEB72A970FB6F894DEBF0FBECDBFC3
S113081089876A871A8219821B820FC0CE010996C2
S11308200E947404282F89819A81622F0E94670094
S11308309A8389838B818F5F8B838B81282F30E010
S11308408A85882F90E00297281739073CF319818D
S1130850CE0109960E947404181759F489819A816B
S1130860892F9927182FCE0109960E94740418170E
S113087031F04AE06BE071E08FEF0E947101CE012C
S113088009966A850E949A04CE0109960E9474040E
S11308908C83CE0109960E9474048D83CE0109963F
S11308A00E9474048E83CE0109960E9474048F837F
S11308B0CE0109960E94740488878F81882349F4A5
S11308C08D818F3F31F04AE065E171E08C810E94B7
S11308D0710100002A960FB6F894DEBF0FBECDBF9B
S11308E0DF91CF911F910895CF93DF9300D0CDB7BF
S11308F0DEB79A83898389819A81FC01808180345F
S113090020F089819A81FC01108289819A81FC01FD
S11309102081822F90E087559E4FFC0130812F5F0C
S113092089819A81FC012083832F0F900F90DF919E
S1130930CF910895CF93DF9300D01F92CDB7DEB748
S11309409A8389836B8389819A81FC018081282F12
S1130950332727FD30958B81992787FD9095A90131
S1130960481B590BCA0199237CF489819A81FC01A3
S113097090818B81F92FF81B8F2F282F205C898180
S11309809A81FC0120830BC089819A81FC019081AA
S11309908B81292F281B89819A81FC0120830F9048
S11309A00F900F90DF91CF910895CF93DF9300D0F4
S11309B01F92CDB7DEB79A8389836B8389819A812D
S11309C0FC018081803420F089819A81FC011082AD
S11309D089819A81FC012081822F90E087559E4F66
S11309E03B81FC0130832F5F89819A81FC01208344
S11309F00F900F900F90DF91CF910895CF93DF93D5
S1130A00CDB7DEB710923D0110923C0182E090E038
S1130A1090930701809306018091E9019091EA0186
S1130A20A091EB01B091EC01BC01CD010E94510AEF
S1130A300E94220B0E94B20BDF91CF910895CF93B5
S1130A40DF93CDB7DEB780913C0190913D010097D3
S1130A5089F48BE090E090933D0180933C011092E7
S1130A6007011092060187E090E0909309018093BA
S1130A70080127C080913C0190913D01009709F144
S1130A8010923D0110923C0182E090E090930701A6
S1130A90809306010E94220B8091ED019091EE015A
S1130AA0A091EF01B091F001BC01CD010E94510A67
S1130AB00E94B20B24E04DEE51E061EA82E00E9414
S1130AC06102DF91CF910895CF93DF93CDB7DEB765
S1130AD080913C0190913D018F3091059CF08BE019
S1130AE090E090933D0180933C0110920701109295
S1130AF006010E94B20B87E090E090930901809375
S1130B00080118C080913C0190913D010196909399
S1130B103D0180933C0110920701109206010E944E
S1130B20B20B8091080190910901019790930901FA
S1130B3080930801DF91CF910895CF93DF93CDB7D0
S1130B40DEB780913C0190913D018B30910559F5C0
S1130B5080914E0190914F01019790934F018093A2
S1130B604E0180914E0190914F01009709F06BC1A5
S1130B7084E090E090934F0180934E0110925101D4
S1130B80109250011092530110925201109255018B
S1130B90109254011092570110925601109259016B
S1130BA01092580150C180913C0190913D018C30CC
S1130BB0910509F067C080914E0190914F018130F9
S1130BC0910569F48091500190915101009739F495
S1130BD085E090E0909351018093500109C0809189
S1130BE050019091510101979093510180935001CC
S1130BF080914E0190914F018230910529F582E058
S1130C0090E09093510180935001109253011092FF
S1130C1052011092550110925401109257011092F2
S1130C2056011092590110925801809150019091EF
S1130C3051018230910508F006C189E090E090935B
S1130C40510180935001FFC080914E0190914F015A
S1130C508330910551F48091500190915101019795
S1130C609093510180935001EEC080914E01909178
S1130C704F018430910509F0E6C0109251011092A1
S1130C805001E1C080913C0190913D018D3091056E
S1130C90A9F58091520190915301019790935301CA
S1130CA08093520180914E0190914F0181309105C2
S1130CB0C1F480915001909151018530910589F4DE
S1130CC01092530110925201109255011092540146
S1130CD01092570110925601109259011092580126
S1130CE0B2C080914E0190914F018430910509F07A
S1130CF0A7C01092530110925201A2C080913C01EE
S1130D0090913D018E309105A9F580915401909107
S1130D1055010197909355018093540180914E01A0
S1130D2090914F0181309105C1F4809150019091CF
S1130D3051018530910589F41092530110925201AA
S1130D4010925501109254011092570110925601BD
S1130D50109259011092580176C080914E019091E1
S1130D604F018430910509F06DC010925501109225
S1130D70540168C080913C0190913D018F309105F0
S1130D8009F061C08091560190915701009769F470
S1130D9087E090E0909357018093560185E090E0BE
S1130DA090935901809358014EC0809156019091BF
S1130DB057018730910559F485E090E090935701ED
S1130DC08093560110925901109258013CC08091B1
S1130DD05601909157018530910569F482E090E0C5
S1130DE0909357018093560185E090E090935901C8
S1130DF08093580128C08091560190915701823008
S1130E009105A9F080914E0190914F018130910597
S1130E1039F480915001909151018530910539F058
S1130E2080914E0190914F018430910561F41092AC
S1130E30570110925601109259011092580103C0A3
S1130E40000001C000000E94B20BDF91CF91089511
S1130E50CF93DF93CDB7DEB780913C0190913D01F4
S1130E608C30910504F180913C0190913D010197F2
S1130E7090933D0180933C0110920701109206016A
S1130E800E94B20B80910801909109010196909300
S1130E9009018093080124E04DEE51E061EA82E00B
S1130EA00E94610220C080913C0190913D018B30F1
S1130EB09105C9F48FE090E090933D0180933C014B
S1130EC010920701109206010E94B20B83E090E099
S1130ED0909309018093080124E04DEE51E061EA0A
S1130EE082E00E946102DF91CF910895CF93DF9356
S1130EF0CDB7DEB780913C0190913D018B309105D7
S1130F0009F066C080914E0190914F010196909333
S1130F104F0180934E0180914E0190914F01843096
S1130F209105A9F4109251011092500110925301AD
S1130F3010925201109255011092540110925701CF
S1130F40109256011092590110925801E4C18091F7
S1130F504E0190914F0185309105D8F081E090E0E9
S1130F6090934F0180934E011092510110925001C1
S1130F701092530110925201109255011092540193
S1130F801092570110925601109259011092580173
S1130F90C2C180914E0190914F018230910509F0B8
S1130FA0BAC182E090E09093510180935001109275
S1130FB05301109252011092550110925401109253
S1130FC05701109256011092590110925801A3C171
S1130FD080913C0190913D018C30910509F09EC0B7
S1130FE080914E0190914F018130910509F58091D6
S1130FF050019091510184309105D1F480915001B8
S11310009091510101969093510180935001109257
S113101053011092520110925501109254011092F2
S1131020570110925601109259011092580173C140
S113103080914E0190914F0181309105B1F48091DE
S11310405001909151010196909351018093500168
S113105080915001909151018630910508F456C158
S1131060109251011092500151C180914E01909102
S11310704F0182309105C1F480915001909151014A
S11310800196909351018093500180915001909169
S113109051018A30910508F439C182E090E09093BF
S11310A051018093500132C180914E0190914F01C2
S11310B083309105B1F480915001909151010196D2
S11310C0909351018093500180915001909151016E
S11310D08A30910508F41AC11092510110925001FE
S11310E015C180914E0190914F018430910509F012
S11310F00DC110925101109250011092530110929F
S113110052011092550110925401109257011092FD
S113111056011092590110925801F8C080913C0177
S113112090913D018D30910509F041C080915201AB
S113113090915301019690935301809352018091B1
S11311404E0190914F0181309105C1F4809150017D
S1131150909151018530910589F4109253011092B8
S1131160520110925501109254011092570110929D
S113117056011092590110925801CDC0809152012C
S1131180909153018A30910528F0109253011092E6
S11311905201BEC080914E0190914F01843091055F
S11311A009F0B6C01092530110925201B1C080915F
S11311B03C0190913D018E30910509F041C0809130
S11311C054019091550101969093550180935401D7
S11311D080914E0190914F0181309105C1F480912D
S11311E05001909151018530910589F41092530179
S11311F0109252011092550110925401109257010D
S113120010925601109259011092580184C0809195
S11312105401909155018A30910528F0109255019E
S11312201092540177C080914E0190914F01843007
S1131230910509F06FC010925501109254016AC0D3
S113124080913C0190913D018F30910509F063C07C
S1131250809156019091570187309105A9F08091B2
S11312604E0190914F018130910539F480915001E4
S1131270909151018530910539F080914E01909102
S11312804F018430910549F4109257011092560190
S113129010925901109258013EC0809156019091CC
S11312A05701009769F482E090E09093570180938E
S11312B0560185E090E090935901809358012BC02A
S11312C080915601909157018230910559F485E03F
S11312D090E0909357018093560110925901109217
S11312E0580119C08091560190915701853091059C
S11312F091F487E090E0909357018093560185E044
S113130090E0909359018093580105C0000003C0F8
S1131310000001C000000E94B20BDF91CF9108953C
S1131320CF93DF93CDB7DEB781E590E02FEFFC01DB
S1131330208383E590E023E530E0F90120812F60EC
S1131340FC01208387E590E027E530E0F901208166
S11313502260FC012083DF91CF910895CF93DF9326
S1131360CDB7DEB787E390E027E0FC0120838DE270
S113137090E02FEDFC012083DF91CF910895CF936E
S1131380DF93CDB7DEB782E290E02CE0FC0120834E
S113139083E290E02CE0FC012083DF91CF9108955B
S11313A0CF93DF93CDB7DEB787E890E02EE0FC0162
S11313B0208386E890E020E1FC0120838AE890E025
S11313C02AE830E0F90120812D60FC0120838FE5BB
S11313D090E02FE530E0F90120812068FC012083B2
S11313E08DE790E02DE730E0F90120812061FC01D8
S11313F02083DF91CF910895CF93DF93CDB7DEB7EC
S11314008AE690E02AE0FC0120838AE590E02AEA5B
S1131410FC01208389E590E023EFFC012083DF9128
S1131420CF910895CF93DF93CDB7DEB78FEF90E0E0
S113143090934D0180934C018FEF90E090934B017A
S113144080934A018FEF90E0909349018093480183
S11314508FEF90E090934701809346018FEF90E0E7
S113146090934501809344018FEF90E09093430162
S1131470809342018FEF90E090934101809340016B
S11314808FEF90E090933F0180933E018FE290E0D4
S113149020913E0130913F01FC012083DF91CF91E7
S11314A00895CF93DF93CDB7DEB728970FB6F8949E
S11314B0DEBF0FBECDBF6D837E838F8398878D8102
S11314C09E81AF81B88528EE33E040E050E0BC0156
S11314D0CD010E94270F29833A834B835C838D813E
S11314E09E81AF81B8858093E9019093EA01A0932E
S11314F0EB01B093EC0189819A81AB81BC812AE034
S113150030E040E050E0BC01CD010E94270FDC0137
S1131510CB01909359018093580189819A81AB81C1
S1131520BC812AE030E040E050E0BC01CD010E94E3
S1131530270FDA01C9012AE030E040E050E0BC01A5
S1131540CD010E94270FDC01CB01909357018093BA
S1131550560189819A81AB81BC8124E630E040E068
S113156050E0BC01CD010E94270FDA01C9012AE035
S113157030E040E050E0BC01CD010E94270FDC01C7
S1131580CB01909355018093540189819A81AB8159
S1131590BC8128EE33E040E050E0BC01CD010E9464
S11315A0270FDA01C9012AE030E040E050E0BC0135
S11315B0CD010E94270FDC01CB019093530180934E
S11315C0520189819A81AB81BC8120E137E240E0FC
S11315D050E0BC01CD010E94270FDA01C9012AE0C5
S11315E030E040E050E0BC01CD010E94270FDC0157
S11315F0CB01909351018093500189819A81AB81F1
S1131600BC8120EA36E841E050E0BC01CD010E94F3
S1131610270FDA01C9012AE030E040E050E0BC01C4
S1131620CD010E94270FDC01CB0190934F018093E1
S11316304E0128960FB6F894DEBF0FBECDBFDF91E2
S1131640CF910895CF93DF93CDB7DEB780914E014C
S113165090914F01CC01A0E0B0E09C01AD0160EAA3
S113166076E881E090E00E94170F9B01AC01E091C5
S11316705001F091510160E177E2E69FC001E79FDC
S1131680900DF69F900D1124CC01A0E0B0E0280F3E
S1131690391F4A1F5B1FE0915201F091530168EE1C
S11316A073E0E69FC001E79F900DF69F900D112413
S11316B0CC01A0E0B0E0280F391F4A1F5B1F6091E6
S11316C0540170915501E4E6E69FC001E79F900D37
S11316D01124CC01A0E0B0E0280F391F4A1F5B1F82
S11316E08091560190915701880F991FBC01660F94
S11316F0771F660F771F860F971FCC01A0E0B0E01D
S1131700280F391F4A1F5B1F80915801909159017E
S1131710CC01A0E0B0E0820F931FA41FB51F8093FB
S1131720ED019093EE01A093EF01B093F0012091AD
S1131730ED013091EE014091EF015091F00188EEFE
S113174093E0DC010E94490FDC01CB018093ED01A1
S11317509093EE01A093EF01B093F0010000DF91AC
S1131760CF910895CF93DF93CDB7DEB780914E012B
S113177090914F01880F991F805E9E4FFC018081DC
S1131780918190934D0180934C01809150019091EF
S11317905101880F991F805E9E4FFC0180819181C9
S11317A090934B0180934A0180915201909153018F
S11317B0880F991F805E9E4FFC01808191818F77F5
S11317C09927909349018093480180915401909105
S11317D05501880F991F805E9E4FFC018081918185
S11317E0909347018093460180915601909157014F
S11317F0880F991F805E9E4FFC0180819181909398
S11318004501809344018091580190915901880FBA
S1131810991F805E9E4FFC018081918190934301CA
S1131820809342018FEF90E09093410180934001B7
S11318308FEF90E090933F0180933E018FE290E020
S113184020913E0130913F01FC012083DF91CF9133
S113185008951F920F9200905F000F921124009040
S11318605B000F922F933F934F938F939F93EF932C
S1131870FF93CF93DF93CDB7DEB780910A01883011
S113188069F481E080930A0188E390E021E0FC019F
S1131890208388E390E0FC01108213C08FE290E083
S11318A040910A01242F30E0220F331F225C3E4F67
S11318B0F90120813181FC012083842F8F5F809383
S11318C00A01DF91CF91FF91EF919F918F914F91F9
S11318D03F912F910F9000925B000F9000925F0058
S11318E00F901F9018951F920F9200905F000F9217
S11318F0112400905B000F922F933F934F935F93BB
S11319006F937F938F939F93AF93BF93EF93FF93C3
S1131910CF93DF93CDB7DEB7809106019091070195
S11319200097E1F48091080190910901880F991FB3
S1131930825C9E4F2FEF30E0FC01318320838FE2E5
S113194090E020913E0130913F01FC01208381E031
S113195090E090930701809306014EC080910601A8
S1131960909107018130910581F510920701109241
S1131970060180910801909109012091080130919C
S1131980090147E050E0BA01621B730B9B01220F6F
S1131990331F225B3E4FF90120813181220F331F17
S11319A0205E3E4FF90120813181880F991F825CAE
S11319B09E4FFC01318320838FE290E020913E0111
S11319C030913F01FC01208317C080910601909162
S11319D007018230910581F40E94220B8091ED0170
S11319E09091EE01A091EF01B091F001BC01CD0105
S11319F00E94510A0E94B20BDF91CF91FF91EF91A7
S1131A00BF91AF919F918F917F916F915F914F9112
S1131A103F912F910F9000925B000F9000925F0016
S1131A200F901F9018951F920F9200905F000F92D5
S1131A3011248F939F93CF93DF93CDB7DEB780911B
S1131A403A0190913B01019690933B0180933A01B6
S1131A50DF91CF919F918F910F9000925F000F9033
S1131A601F9018951F920F9200905F000F921124FF
S1131A7000905B000F922F933F934F935F936F936C
S1131A807F938F939F93AF93BF93EF93FF93CF93E2
S1131A90DF93CDB7DEB720913A0130913B018091BD
S1131AA0640190916501A901481B590BCA018B304F
S1131AB0910550F00E94280780913A0190913B01D2
S1131AC09093650180936401DF91CF91FF91EF9131
S1131AD0BF91AF919F918F917F916F915F914F9142
S1131AE03F912F910F9000925B000F9000925F0046
S1131AF00F901F9018951F920F9200905F000F9205
S1131B00112400905B000F922F933F934F935F93A8
S1131B106F937F938F939F93AF93BF93EF93FF93B1
S1131B20CF93DF93CDB7DEB720913A0130913B01DB
S1131B308091620190916301A901481B590BCA016C
S1131B408B30910550F00E94760780913A01909174
S1131B503B019093630180936201DF91CF91FF91E8
S1131B60EF91BF91AF919F918F917F916F915F9111
S1131B704F913F912F910F9000925B000F90009234
S1131B805F000F901F9018951F920F9200905F00B6
S1131B900F92112400905B000F922F933F934F9369
S1131BA05F936F937F938F939F93AF93BF93EF93C1
S1131BB0FF93CF93DF93CDB7DEB720913A013091F5
S1131BC03B018091600190916101A901481B590B6F
S1131BD0CA018B30910550F00E949D0580913A0115
S1131BE090913B019093610180936001DF91CF91CB
S1131BF0FF91EF91BF91AF919F918F917F916F91E1
S1131C005F914F913F912F910F9000925B000F9045
S1131C1000925F000F901F9018951F920F920090F2
S1131C205F000F92112400905B000F922F933F935B
S1131C304F935F936F937F938F939F93AF93BF93D0
S1131C40EF93FF93CF93DF93CDB7DEB720913A01A3
S1131C5030913B0180915E0190915F01A901481B85
S1131C60590BCA018B30910550F00E946405809194
S1131C703A0190913B0190935F0180935E01DF9163
S1131C80CF91FF91EF91BF91AF919F918F917F91F0
S1131C906F915F914F913F912F910F9000925B0054
S1131CA00F9000925F000F901F9018951F920F9253
S1131CB000905F000F92112400905B000F922F930D
S1131CC03F934F935F936F937F938F939F93AF93C0
S1131CD0BF93EF93FF93CF93DF93CDB7DEB72091FC
S1131CE03A0130913B0180915C0190915D01A90121
S1131CF0481B590BCA018B30910550F00E941F05F7
S1131D0080913A0190913B0190935D0180935C0135
S1131D10DF91CF91FF91EF91BF91AF919F918F91FF
S1131D207F916F915F914F913F912F910F9000920E
S1131D305B000F9000925F000F901F9018951F9208
S1131D400F9200905F000F92112400905B000F929D
S1131D502F933F934F935F936F937F938F939F93AF
S1131D60AF93BF93EF93FF93CF93DF93CDB7DEB7DA
S1131D7020913A0130913B0180915A0190915B018D
S1131D80A901481B590BCA018B30910550F00E94E0
S1131D90FE0480913A0190913B0190935B01809302
S1131DA05A01DF91CF91FF91EF91BF91AF919F9134
S1131DB08F917F916F915F914F913F912F910F90F0
S1131DC000925B000F9000925F000F901F90189597
S1131DD0CF93DF93CDB7DEB70E94AE090E94BF094F
S1131DE08FE290E00E943C010E94FC090E94D0090D
S1131DF00E9490090E94120A80E091EEA5EFB5E0DE
S1131E008093ED019093EE01A093EF01B093F00164
S1131E108091ED019091EE01A091EF01B091F0015C
S1131E20BC01CD010E94510A0E94B20BFFCFDB011D
S1131E308F939F930E94490FBF91AF91A29F800DF2
S1131E40911DA39F900DB29F900D11240895A1E2BE
S1131E501A2EAA1BBB1BFD010DC0AA1FBB1FEE1F20
S1131E60FF1FA217B307E407F50720F0A21BB30B6B
S1131E70E40BF50B661F771F881F991F1A9469F7E7
S1131E8060957095809590959B01AC01BD01CF0143
S1131E9008950E94540FA59F900DB49F900DA49F88
S1131EA0800D911D11240895A29FB001B39FC0011C
S1131EB0A39F01D0B29F700D811D1124911D08951F
S1131EC00F931F93CF93DF938230910510F482E038
S1131ED090E0E091F301F091F40120E030E0C0E003
S1131EE0D0E023C04081518148175907A8F0481712
S1131EF0590761F482819381209719F09B838A8327
S1131F002EC09093F4018093F30129C0211531056B
S1131F1029F04217530710F0A90102C0BE01DF01E6
S1131F2002811381EF019A01F8013097D9F6211546
S1131F30310509F1281B390B2430310590F4129630
S1131F408D919C9113976115710521F0FB01938389
S1131F50828304C09093F4018093F301FD013296CF
S1131F6044C0FD01E20FF31F819391932250310984
S1131F702D933C933AC02091F1013091F201232B2F
S1131F8041F420910201309103013093F201209336
S1131F90F10120910001309101012115310541F435
S1131FA02DB73EB74091040150910501241B350B18
S1131FB0E091F101F091F201E217F307A0F42E1B76
S1131FC03F0B2817390778F0AC014E5F5F4F241799
S1131FD0350748F04E0F5F1F5093F2014093F10113
S1131FE08193919302C0E0E0F0E0CF01DF91CF91C3
S1131FF01F910F910895EF92FF920F931F93CF9328
S1132000DF93009709F48FC0DC01129713961C929A
S11320101E921297E090F301F090F401E114F104A0
S113202089F42D913C911197280F391F8091F1016A
S11320309091F2018217930789F5B093F201A0936E
S1132040F10171C0E70120E030E001C0EA01CA17E4
S1132050DB0738F44A815B819E0141155105B1F7D4
S113206022C0BC0162507109FB01D383C283008189
S11320701181AC01400F511F4C175D0761F4488179
S11320805981400F511F4E5F5F4F518340834A81F6
S11320905B81538342832115310529F4B093F40104
S11320A0A093F30140C0F901B383A283E9016991CC
S11320B07991C60FD71FAC17BD0779F4DC015E9187
S11320C04E91460F571F4E5F5F4F518340831296C8
S11320D08D919C91139793838283A0E0B0E002C01A
S11320E0D7017C01F701828193810097C9F7C70169
S11320F0029620813181820F931F2091F10130914A
S1132100F2012817390779F4109729F41092F40191
S11321101092F30104C013961C921E921297F0922F
S1132120F201E092F101DF91CF911F910F91FF90A5
S1132130EF900895FB01DC0102C001900D92415023
S10D21405040D8F70895F894FFCF3B
S113214A0000F50120000200070001EC726320651B
S113215A72726F7200EE4C656E206572726F720055
S113216AC000F900A400B000990092008200F800AF
S107217A800090004D
S9030000FC
